:020000040800F2
:10000000A807002099010008993A00080136000865
:10001000953A0008E5090008314300080000000097
:10002000000000000000000000000000A13A0008ED
:10003000790A0008000000009D3A0008A53A00086F
:10004000B3010008B3010008B3010008B3010008C0
:10005000B3010008B3010008B3010008B3010008B0
:10006000B3010008B3010008B3010008B3010008A0
:10007000B3010008B3010008B3010008B301000890
:10008000610A0008B3010008D9090008B30100089B
:10009000B3010008B3010008B3010008B301000870
:1000A000B3010008B3010008B3010008B301000860
:1000B000F13A0008B3010008FD3A0008B301000856
:1000C000B3010008B3010008B3010008B301000840
:1000D000B3010008B301000825430008B30100087C
:1000E0007D0A0008B3010008B3010008B30100084D
:1000F000B3010008B3010008B3010008B301000810
:10010000B3010008B3010008B3010008B3010008FF
:10011000B3010008B3010008B3010008B3010008EF
:100120006D0A0008B3010008B3010008B30100081C
:10013000B3010008B3010008B3010008B3010008CF
:10014000B3010008B3010008B3010008B3010008BF
:10015000B3010008B3010008B3010008B3010008AF
:10016000B3010008B3010008B3010008B30100089F
:10017000B3010008B3010008B3010008000000004B
:10018000B3010008DFF80CD000F06CFB004800471A
:1001900051460008A8070020064880470648004747
:1001A000FEE7FEE7FEE7FEE7FEE7FEE7FEE7FEE727
:1001B000FEE7FEE7A93A0008850100082DE9F05F97
:1001C0000546002092469B468846064681464024C6
:1001D0001BE0284641464746224600F05CFA53465B
:1001E0005A46C01A914110D311461846224600F0D3
:1001F00043FA2D1A67EB01084F46224601200021E1
:1002000000F03AFA17EB00094E41201EA4F1010458
:10021000DFDC484631462A464346BDE8F09F0000F1
:10022000004870478453000840EA01039B0703D04D
:1002300009E008C9121F08C0042AFAD203E011F825
:10024000013B00F8013B521EF9D27047D2B201E0E7
:1002500000F8012B491EFBD270470022F6E710B5CB
:1002600013460A4604461946FFF7F0FF204610BD24
:10027000421E12F8013F002BFBD111F8013B02F89E
:10028000013B002BF9D17047421C10F8011B0029DB
:10029000FBD1801A704710B5002200E0521C835C2D
:1002A0008C5CA34201D1002BF8D1D8B2E1B2401A44
:1002B00010BD034611F8012B00F8012B002AF9D1DB
:1002C0001846704770B50F4D00B92868002412E039
:1002D0000A4602E09E4203D0521C1378002BF9D14B
:1002E000DAB2224305D02BB124B1002100F8011B62
:1002F00004E00446401C0678002EE9D12860204620
:1003000070BD00000000002070B5064604F080FBC0
:10031000046805460A220021304600F0DEF92C6010
:1003200070BD2DE9FE4F804681EA0300C00F0C46E8
:10033000009021F0004123F00045B8EB0200A941F4
:1003400005D24046214690461C460B46024623F005
:100350000040104347D0270DC7F30A00C3F30A51EA
:100360000290401A019040286BDAC3F3130040F466
:10037000801B0098924620B10023D2EB030A63EB66
:100380000B0B01985946C0F14002504600F074F939
:1003900006460D4650465946019A00F08CF910EB7E
:1003A00008006141002487EA115284EAE7731A4386
:1003B00040D0009A62B3019A012A4FEA075215DC35
:1003C000001B61EB02014FF0004202EA0752CDE947
:1003D0000042001C41F5801132462B4600F0C4F962
:1003E00003B0BDE8F08F40462146F9E7001B61EB02
:1003F0000201001C41F5801300185B412018A2F592
:10040000001747EB030140EAD570B6196D4111E0C2
:100410006D084FEA360645EAC0754FEA0752001BE1
:1004200061EB0201001C41F5801149084FEA3000E0
:100430000019514132462B4603B0BDE8F04F00F0A1
:1004400084B90098012240000023D0EB020263EB44
:10045000E073009821464FEAE074B8EB000061EBCE
:100460000401E9E783F000435BE781F0004158E7CE
:100470002DE9FE4F81EA030404F0004421F000411D
:1004800000944FF0000B23F0004350EA01045ED0CB
:1004900052EA03045BD0C3F30A54C1F30A552C4457
:1004A000A4F2F3340194A0FB0254C1F3130141F40C
:1004B0008011C3F3130343F4801301FB024400FBD8
:1004C000034E840A970A44EA815447EA8357A4FBFF
:1004D000076802958D0A05FB07854FEA932C04FBFC
:1004E0000C542705029D4FEA065847EA1637B5EB2C
:1004F00008056EEB070C870E920E47EA811742EA59
:100500008312A7FB0201B6EB0B0164EB00042B0D79
:1005100043EA0C335E1844EB1C50DA465146E7FBC5
:100520000201C5F313044FEA0B3343EA14534FEAB5
:100530000432019C43EA0603A4F10C040294009CDB
:10054000CDE900B400F010F903B0BDE8F08F002051
:100550000146F9E72DE9F04D81EA030404F0004B70
:1005600021F0004514464FF0000A23F0004150EA04
:10057000050220D054EA01021DD0C5F30A570246F5
:10058000C5F31303C1F31300C1F30A5640F48015F9
:1005900043F48013A7EB0608101BD64608F2FD387B
:1005A00073EB050002D308F1010801E092185B41EA
:1005B000B8F1000F03DA00200146BDE8F08D0020FD
:1005C0004FF48011064684460EE0171B73EB0507B7
:1005D00005D3121B63EB050306434CEA010C4908E3
:1005E0004FEA300092185B4150EA0107EDD152EA20
:1005F000030012D082EA040083EA0501084305D013
:10060000101BAB4106D20122002306E000224FF06E
:10061000004302E06FF0010253101AEB06004CEBAE
:10062000085110EB0A0041EB0B01BDE8F04D00F062
:100630008CB80EB540F2334102910021CDE9001192
:100640000A460B4600F090F803B000BD30B50B46EB
:10065000014600202022012409E021FA02F59D42F2
:1006600005D303FA02F5491B04FA02F52844151EC6
:10067000A2F10102F1DC30BD202A04DB203A00FAAD
:1006800002F1002070479140C2F1200320FA03F3E9
:10069000194390407047202A04DB203A21FA02F0E7
:1006A0000021704721FA02F3D040C2F120029140AC
:1006B000084319467047202A06DBCB17203A41FA37
:1006C00002F043EAE07306E041FA02F3D040C2F1DF
:1006D000200291400843194670472DE9F0479146A2
:1006E0000F4680460446002614F8015B2DB1FFF743
:1006F00097FD0068405DC007F6D12B2D02D02D2D4F
:1007000018D0641E4A463946204600F0C3F827B187
:100710003968A14201D1C7F8008071054FF0020489
:100720000BD54042002803DD04F072F90460A007F5
:10073000BDE8F08746F48066E4E70028F8DA04F0C4
:1007400067F904606FF00040F2E710B5141E73F112
:10075000000408DA401C41F1000192185B411A4381
:1007600001D120F0010010BD2DE9F04D92469B46CD
:1007700011B1B1FA81F202E0B0FA80F22032904673
:10078000FFF77AFF04460F4640EA0A0041EA0B01F0
:1007900053465A46084313D0114653EA010019D074
:1007A000C8F140025046FFF776FF05460E46504618
:1007B00059464246FFF760FF084305D0012004E098
:1007C00020463946BDE8F08D0020054346EAE07634
:1007D0002C4337430A986305E40AA0EB0800002283
:1007E000FD0A44EA47540A3002D500200146E9E7F1
:1007F000010510196941DDE9084500196941BDE8A5
:10080000F04DA2E7C1F30A52C1F3130140F2FF33E6
:1008100041F480119A4202DA00200146704740F20A
:1008200033439A42A2F2334202DC5242FFF733BF13
:10083000FFF722BF30B5041E71F1000404DB4FF056
:100840000044404264EB0101141E73F1000405DB17
:100850001C464FF00043524263EB0403994208BF29
:10086000904230BD1CB509480090094801900546EA
:10087000009C06E0E06840F0010394E80700984718
:100880001034AC42F6D3FFF781FC0000B8530008E7
:10089000D85300082DE9F05F8246007800271546FE
:1008A0008B460AF10104B946302801D09DB113E00E
:1008B00014F8010B0127782803D0582801D045B13E
:1008C0000AE00DB1102D07D10027102514F8010BF7
:1008D00002E0082500E00A250026B0460EE005FBF0
:1008E000080005FB06F1012701EB10461FFA80F80E
:1008F000B6F5803F00D3B94614F8010B294600F045
:1009000018F80028EBDABBF1000F05D00FB1641E18
:1009100000E05446CBF80040B9F1000F06D004F0D7
:1009200077F802210160C81EBDE8F09F48EA064042
:10093000FAE73A2800D2303820F02002412A01D3C9
:10094000A2F13700884201D34FF0FF30704700001A
:100950000146806B036C026C13F0500F07D0D20677
:1009600048BF00F0E9B9806BC26C0846104742F4FA
:100970000071016401688A6812F0405F01D000F0E4
:10098000C9B9027E002AFAD1CA6A12F4700F02D0E5
:100990008A685205F3D44A6822F020024A60016C4A
:1009A00021F480710164016CC90448BF00F0B2B940
:1009B000016C41F00101016400F0ACB9806B402191
:1009C0000164416C41F00401416400F0B5B90000DC
:1009D000806B00F0AFB9000040F2F400C2F20000FA
:1009E00000F0ACB9FEE70000F0B500F1080E01F12F
:1009F000070C0023C258C418CA54C558CA182D0A77
:100A0000557065880CEB03079570E578D5700EEB93
:100A1000030555F8046C167155F8046C360A5671C6
:100A200035F8026C967115F8016C0CF803605EF8ED
:100A300003607E705EF803601033360ABE706E8805
:100A4000402B9672ED78D572E5681573E5684FEA2C
:100A500015255573E5899573E47BD473CAD1F0BD30
:100A600040F29C10C2F2000000F0D8BB40F23C10F3
:100A7000C2F2000000F0D2BB704700004FF40050FB
:100A800000F014BF704700002DE9F04140F28438B7
:100A9000044643F60C46C2F200080020C4F20206E7
:100AA000C8F81C0000F0F4FF3168C90342D4306874
:100AB000C0071CBF01203060306810F0F20F40D03A
:100AC0003068C00607D5D8F81C0040F00800C8F808
:100AD0001C00102030603068800607D5D8F81C0054
:100AE00040F00400C8F81C00202030603068400648
:100AF00007D5D8F81C0040F00200C8F81C004020C0
:100B000030603068000607D5D8F81C0040F00100BE
:100B1000C8F81C00802030603068800707D5D8F8FE
:100B20001C0040F01000C8F81C00022030600120BA
:100B3000BDE8F0810546671C06D054B90320BDE826
:100B4000F0810020BDE8F0813068C003AFD5002FF0
:100B5000FAD000F09DFF401BA042F5D90320BDE86C
:100B6000F08100000268002A04BF0120704702687B
:100B7000531C16D010300A6050F80C2C531C10D0A7
:100B80004A6050F8082C531C1EBF8A6050F8042C91
:100B900012F1010305D0CA6050F8102B1031531C1C
:100BA000E9D100207047000070B582B014460D46B0
:100BB000064600F04BFE40F29C00C2F2000000210D
:100BC000016002210B220123016101A9C0E9022376
:100BD00000F0F2FC20B100F0A3FDC0B202B070BD85
:100BE0006CB100BF55F8042B02203146002300F001
:100BF000A7FD0028EFD1013C06F10406F2D100F078
:100C000095FD0020C0B202B070BD0000704700002A
:100C1000B0B581B00022009290F83C20012A01D1A9
:100C2000022155E0D1F800E001221FFA8EFC80F885
:100C30003C200CEB4C030268BEF10A0F32BF1032AD
:100C40001E3B0C32072415689C4025EA04041460FE
:100C50008C68156804FA03F32B4313604A68062A6C
:100C600007D802EB82014A1F01681F2351F8344F55
:100C70000CE001680C2A02EB820203D851F8304FD5
:100C8000233A02E051F82C4F413A1F23934024EAC3
:100C900003030B600D680CFA02F22A4342F204339C
:100CA0000A60C4F201030168BEF1120FA3F541729C
:100CB00008BF914203D11D6845F480051D602EF0E8
:100CC0000105102D08BF914205D0002180F83C108D
:100CD000084601B0B0BD1968BEF1100F41F4000123
:100CE0001960F2D140F21001C2F2000109684DF61C
:100CF0008362C4F21B32A1FB0212910C01EB810151
:100D0000490000BF009100990029DED00099013907
:100D1000F8E70000006842F20001C4F201018842D5
:100D200018BF704740F22000C2F20000012101709C
:100D300070470000704700007047000070B504461F
:100D4000006806684568B10717D515F0200114D072
:100D5000216CC90603D4216C41F4007121648168BF
:100D600011F0405F02D1217E002968D02046FFF7B4
:100D7000D1FF20686FF012010160700715D515F0E2
:100D8000800012D0206CC00603D4206C40F40050C8
:100D900020642068816811F4401F2FD02046FFF79F
:100DA00035FF20686FF00C010160F00718BF15F0E7
:100DB000400013D1B00610D515F0806008BF70BD9B
:100DC0002068616C6FF0200541F0020161640560EC
:100DD0002046FFF7B1FF2068056070BD20680068FD
:100DE000C007E7D0206C40F480302064204600F03B
:100DF000E5F820686FF001010160DBE7816B11F419
:100E0000401F02D081684905C8D441684905C5D44E
:100E1000816811F0405FC1D1217E0029BED14168B7
:100E200021F080014160206C20F480502064206C0F
:100E3000C005B3D4206C40F001002064AEE7C16A65
:100E400011F4700F03D0816849053FF58FAF4168F9
:100E500021F020014160206C20F480702064206C1F
:100E6000C0043FF583AF206C40F0010020647DE7B3
:100E7000002804BF0120704710B50446006C30B94B
:100E8000204600F09DF80020606484F83C00206C4F
:100E9000C0063AD4206C41F202118843023042F27B
:100EA00004312064C4F20101086820F44030086075
:100EB0000A6894E809101A43D4F810E00A604168FF
:100EC000012321F4807141604168C0F6007341EA5A
:100ED0000E214160416821F040714160416841EA62
:100EE0000C014160816821F400618160E1688268E1
:100EF00011438160A16A8268994222F07062826027
:100F0000826804D122F040510AE0012052E01143EE
:100F10008160816821F040518160E16A82681143FB
:100F20008160816821F0020181608168227E94F8ED
:100F3000203041EA42018160416883B141F400619F
:100F4000416041684EF2000221F460414160616AF3
:100F5000CFF6FF72436802EB4131194301E021F4FF
:100F600000614160C16A40F2000C21F47001C1626D
:100F7000E2696169CFF6F07CC36A0CEB02521A4356
:100F8000C262826822F40072826094F83020836822
:100F900043EA42228260826822F480628260826830
:100FA00042EA8121816000206064216C012262F3A9
:100FB00001012164002184F83C1010BD704700003D
:100FC000B0B582B00446006842F20001C4F20101EB
:100FD00088421CBF02B0B0BD002043F6440101901E
:100FE000C4F202010A6840F23C1542F480720A60C1
:100FF0000968C2F2000501F480710191019946F27D
:101000001041C4F202014FF48062C5E90010C5E945
:10101000020005F11001C5E9080028464FF40063FD
:101020004FF4005C4FF4807E81E80C5000F0BCF976
:10103000002818BFFFF726FD122000210022A5631B
:10104000AC6300F0BBFD122002B0BDE8B04000F080
:10105000A5BD000070B582B004460020019094F850
:101060003C00012802D1022002B070BD13460A469E
:101070000120216884F83C008868C00718D188687E
:101080004DF6836540F00100886040F21000C2F226
:1010900000000068C4F21B35A0FB0505A80C00EB9E
:1010A000400000BF0190019810B101980138F9E7A4
:1010B0008D68206CED0709D140F01000206404F128
:1010C000440001210268114301604FE040F20175C4
:1010D000A84300F5807020644868400504D5206C62
:1010E000012565F30D302064256C0020ED044FF0E0
:1010F000000544BF656C25F00605656484F83C0076
:10110000A06B40F6511C40F6D115C0F6000CC0F69D
:101110000005C0E90FC540F6BD15C0F60005C56461
:101120006FF022050D604D6842F2000645F08065C3
:101130004D608D68C4F2010645F480758D604C31B8
:1011400000F0D2F9D6F804132068C90609D0B042DD
:101150000CD1B16811F0405F08D108304FF08041E8
:10116000B0E750F8081F11F0405F02D0002002B035
:1011700070BD4FF08041A5E770B5866D044600F064
:1011800087FC94F83510022925D105462068216C8A
:10119000026822F016020260426922F08002426177
:1011A00009B9A16C19B1016821F008010160016859
:1011B00021F00101016000BF20680068C0070ED067
:1011C00000F066FC401B0628F6D320206065032053
:1011D00084F835000CE080206065012008E0E06DB7
:1011E0003F2101FA00F0B060012084F835000020B2
:1011F000002184F8341070BD90F83510022909D10F
:10120000052180F835100068016821F001010160B6
:10121000002070478021416501207047F0B581B002
:1012200004460020009040F21000C2F20000026864
:10123000D4E9166048F2B51337680821C1F64E3379
:1012400081403942A2FB03250CD0226813685B075A
:1012500008D5136823F004031360B160616D41F099
:101260000101616501218140394208D0226852693B
:10127000120604D5B160616D41F00201616504217F
:101280008140394208D022681268920704D5B160C3
:10129000616D41F00401616510218140394215D032
:1012A00020680268120711D5B16002680168520314
:1012B00006D4C90506D4016821F00801016001E0E7
:1012C00008033ED4216C09B120468847E16D2020F7
:1012D00000FA01F23A4240D020680368DB063CD5B0
:1012E000B26094F835300268052B1AD122F016024C
:1012F0000260426922F080024261226C0AB9A26C4B
:101300001AB1026822F0080202603F208840B060F3
:10131000012084F83500216D002084F83400D9BB09
:101320003FE00168520310D4C90512D4016821F0CE
:1013300010010160012084F83500002084F8340099
:1013400007E0A16C0029BFD1C0E7080301D4616C9C
:1013500000E0E16B09B120468847606D08B3606D1D
:10136000C00717D0052084F835002068A90A026854
:1013700022F00102026000BF009A01328A4200920C
:1013800002D80268D207F7D1012084F83500002086
:1013900084F83400E16C21B1204601B0BDE8F04092
:1013A000084701B0F0BD00002DE9F041044600F00F
:1013B0006FFBC4B10546022084F835000020216887
:1013C00084F83400086820F0010008602068016893
:1013D000C9070BD000F05CFB401B0528F6D90321A0
:1013E000202203207AE00120BDE8F081016848F264
:1013F0003F02CFF21002D4E9013501EA020ED4E92E
:10140000032143EA0E032B43D4E9056C1A43D4E9C4
:1014100007781143314341EA0702616A42EA080250
:10142000042942EA0C0303D1D4E90B273A431343BE
:1014300003604269042922F0070241EA02012DD12A
:10144000D4E90A5341EA050143B3BCF5005F08D073
:10145000BCF1000F12D1022D16D0012D07D09DB185
:1014600019E0032D17D8DFE805F00B0F0B02A3F1ED
:10147000C072B2FA82F252094AB90FE0032D02D2C9
:10148000012222B90AE006D1C3F3006232B1012180
:101490004022012022E00022002AF8D100F0F802C8
:1014A0004AF6AB23103ACAF6AA23A2FB033745F249
:1014B000A03341613909C0F60003595C40F2FF33A3
:1014C00098435F2A4FF03F0288BF0430C4E91601F9
:1014D00002FA01F18160002201210020626584F896
:1014E0003510BDE8F081000090F834C0BCF1010F68
:1014F00004BF0220704770B54FF0010C80F834C073
:10150000D0F858E090F835C0BCF1010F37D14FF05A
:10151000020C80F835C04FF0000CC0F854C0D0F871
:1015200000C08468056CC06DDCF80060402C26F4B7
:101530008026CCF80060CCF804300B4604BF13467C
:101540000A463F2101FA00F0CCF80830CCF80C2014
:10155000CEF80800DCF8000040F01600CCF80000DF
:101560002DB1DCF8000040F00800CCF80000DCF8F9
:10157000000040F00100CCF80000002070BD002108
:1015800080F83410022070BDB0B582B0019000F038
:101590007FFA0446019D40F21400C2F20000007878
:1015A000691C18BF054400BF00F072FA001BA84276
:1015B000FAD302B0B0BD00002DE9F04381B040F293
:1015C0008438C2F2000898F81820012A03D10220BA
:1015D00001B0BDE8F0830546012088F818004CF200
:1015E00050308946FFF750FA002840F093804FF0C2
:1015F000FF31C9F80010296843F610470129C4F2E9
:10160000020718D128693968000221F44071396055
:10161000396880B241F0040139603968084340F408
:10162000803038604CF25030FFF72EFA396821F0E4
:101630000401396036E0D5E9026131448E4231D28D
:10164000F000841C28694FF44072C1B20329396844
:101650004FEA002021F440713960396838BF82B206
:1016600041EA02003860386820F0F80038603868D5
:1016700020433860386840F4803038604CF2503095
:10168000FFF702FA396821F0FA01396040B9D5E96B
:101690000212013611448E4204F10804D2D301E053
:1016A000C9F8006057F8101C890517D557F8101CA9
:1016B00021F4007147F8101C57F8101C41F4006128
:1016C00047F8101C57F8101C21F4006147F8101C53
:1016D00057F8101C41F4007147F8101C57F8101C03
:1016E000490517D557F8101C21F4806147F8101CE4
:1016F00057F8101C41F4805147F8101C57F8101C83
:1017000021F4805147F8101C57F8101C41F48061F7
:1017100047F8101C002188F8181001B0BDE8F083CC
:1017200040F28430C2F20000C069704743F61041B5
:10173000C4F20201086840F0004200200A607047CD
:101740002DE9F04381B040F28434C2F200049046A7
:10175000227E012A03D1022001B0BDE8F0830746B2
:10176000012020764CF250301E460D46FFF78CF9D2
:10177000002866D143F61049022FC4F2020915D0A1
:10178000012F28D0E7BBD9F8000020F44070C9F839
:101790000000D9F80000C9F80000D9F8000040F0B6
:1017A0000100C9F8000085F8008040E0D9F8000089
:1017B00020F44070C9F80000D9F8000040F400702F
:1017C000C9F80000D9F8000040F00100C9F8000095
:1017D000C5F800802BE0D9F8000020F44070C9F86B
:1017E0000000D9F8000040F48070C9F80000D9F872
:1017F000000040F00100C9F80000A5F8008016E0E4
:10180000D9F8000020F44070C9F80000D9F80000B1
:1018100040F44070C9F80000D9F8000040F0010021
:10182000C9F80000C5F80080BFF36F8F6E604CF2FE
:101830005030FFF729F9D9F8001021F00101C9F85B
:1018400000100021217601B0BDE8F08343F604408A
:10185000C4F20200C168B1F1FF3FC4BF002070476D
:1018600040F22311C4F26751016048F6AB11CCF687
:10187000EF510160C068C00F70470000B0F5005F15
:1018800018BF704780B540F60000C4F202004FF464
:10189000005100F0E9F840F22001C2F200010028F6
:1018A00018BF01204870BDE88040704743F61441DE
:1018B000C4F201010A68024214BF08607047FFF7D2
:1018C000DDBF00002DE9F04F82B00D68002D00F063
:1018D000C78000F13E4707F1FF77860546EA972764
:1018E00042F20006C4F20206092243F6004EB0425C
:1018F00008BF0822C4F2010E082F38BF3A46002460
:1019000000274FF0000900920BE000BF0D6809F1BD
:10191000010935FA09F207F1020704F1040400F0A5
:101920009F80012202FA09FC15EA0C08EED0D1F8DA
:1019300004B00BF00305A5F1010ABAF1010F4FF055
:10194000030A10D88268CB680AFA07F6B243BB4094
:101950001A4382604268CBF3001322EA0C0203FAB6
:1019600009F31A434260032D1CD0C2688E680AFA3C
:1019700007F39A4306FA07F31A43022DC26011D106
:101980006FF0030202EA5902024404F01C060F231E
:10199000D2F820C003FA06F50B692CEA0505B3401E
:1019A0002B43136202684E680AFA07F39A4306F063
:1019B0000303BB401A4316F4403F0260A6D0002246
:1019C00043F644030192C4F202031A684FF6084C2E
:1019D00042F480421A601A68CFF6FF7C02F480421B
:1019E0000192019A29F00302724452F80C3004F07B
:1019F0000C060F25B540AB43009D05FA06F63343B0
:101A000042F80C30DEF808204B6842EA080643F63C
:101A10000C4CDD0258BF22EA0806CEF80860C4F27A
:101A2000010CDCF800209D0242EA080658BF22EAB9
:101A30000806CCF80060DEF804209D0342EA0806A0
:101A400058BF22EA0806CEF80460DEF80020DB0367
:101A500042EA080658BF22EA0806CEF8006055E7B9
:101A600002B0BDE8F08F00000069084018BF0120F7
:101A700070470000426902EA0103914341EA0341D1
:101A800081617047002A08BF090481617047000026
:101A900040F2A430C2F200000068704747F6102000
:101AA000C1F6FF700068704747F61420C1F6FF705A
:101AB0000068704747F61820C1F6FF70006870474D
:101AC00040F2140040F2A431C2F20000C2F2000160
:101AD00000780A68104408607047000080B543F63B
:101AE0000040C4F20200016841F400710160016825
:101AF00041F480610160016841F48071016003205C
:101B000000F088F8002000F005F800F02BF8002025
:101B100080BD0000B0B540F21402C2F2000240F2F3
:101B200010011278C2F200014FF47A730968B3FB16
:101B3000F2F20446B1FBF2F1084600F051FE0F2C20
:101B40004FF001050CD858B94FF0FF302146002264
:101B5000002500F033F840F21800C2F200000460E3
:101B60002846B0BD82B0002043F640010190C4F287
:101B700002014A6842F480424A604A6802F48042A4
:101B80000192019A0090086840F08050086008684F
:101B900000F080500090009802B07047002848BFC5
:101BA000704700F01F01012202FA01F14EF200120B
:101BB0004009CEF2000242F82010704710B54EF6F0
:101BC0000C5CCEF2000CDCF80030C3F3022E8EF079
:101BD0000704042C28BF0424BEF103034FF0FF3E8A
:101BE0000EFA04F438BF0023A14399400EFA03F320
:101BF0009A43114300F1604200F00F03090102F51E
:101C00006442043B6344002848BF03F10C02117096
:101C100010BD00004EF60C51CEF200010A684FF6DE
:101C2000FF031A4060F30A2242F0806040F0FD702A
:101C300008607047F0B581B00446006808282ED0CF
:101C400010F001002BD1207840074FF0000040F148
:101C5000858043F67006C4F20206009056F8300CF8
:101C600047F2000740F0805046F8300C56F8300C30
:101C7000C4F2000700F0805000900098386840F4EB
:101C800080703860FFF704FF054600BF3868C00564
:101C900034D4FFF7FDFE401B0228F7D92BE068275C
:101CA000C4F2472743F670060020C4F202063860EB
:101CB000FFF7EEFE054600BF56F8700C000105D593
:101CC000FFF7E6FE401B0228F6D914E0D4E9010133
:101CD000090741EA8010706101203860FFF7D8FEE3
:101CE000054600BF56F8700C0001ACD4FFF7D0FEDB
:101CF000401B0228F6D9032001B0F0BD306810F473
:101D0000407013D0E16801F4407188420ED0306811
:101D100040F64061C4F24721012220F440700A607D
:101D200000220A6030603068C00719D1E06856F8B8
:101D3000681C4FF6FF4300F4407221F4F811C0F61E
:101D4000FF730340B2F5407F08BF194346F8681C93
:101D500031686FF31F3008433060002001B0F0BDE0
:101D6000FFF796FE054641F2883700BF30688007CE
:101D7000DCD4FFF78DFE401BB8424FF00300F5D9CD
:101D8000ECE70000002804BF012070472DE9F04176
:101D900043F60808C4F202080446D8F8F8030D46D2
:101DA00000F00F00884207D288F8F853D8F8F803FB
:101DB00000F00F00A8427CD12068810717D54107A9
:101DC00005D5D8F8001041F4E051C8F8001001071B
:101DD00005D5D8F8001041F46041C8F80010D8F8D3
:101DE0000010A26821F0F0011143C8F80010C007EC
:101DF00034D1D8F8F80300F00F00A84207D988F8CA
:101E0000F853D8F8F80300F00F00A84251D1206829
:101E1000410707D5D8F80010E26821F4E0511143DA
:101E2000C8F80010000708D5D8F80000216920F490
:101E3000604040EAC100C8F80000D8F8000000F097
:101E40000C0142F200400829C0F2F40013D004292A
:101E50005FD141F20020C0F27A005AE060680228A7
:101E60001BD0012821D158F8081C89035CBF012030
:101E7000BDE8F08120E058F8041C01F03F0258F85A
:101E8000041C58F8043C4902C3F3881131D4A1FB67
:101E900000010023FEF792F932E058F8081C89018E
:101EA0005CBF0120BDE8F08106E058F8081C8907F6
:101EB00002D40120BDE8F081D8F8001021F0030120
:101EC0000843C8F80000FFF7E3FD064641F28837F3
:101ED000D8F80000616800F00C00B0EB810F3FF40F
:101EE00088AFFFF7D5FD801BB842F1D90320BDE8CC
:101EF000F08141F20020C0F27A004843B0FBF2F0DA
:101F000058F8041C0222C1F3014102EB4101B0FB6D
:101F1000F1F0D8F8001045F28832C1F30311C0F691
:101F20000002515C40F2100220FA01F140F2180068
:101F3000C2F200000068C2F200021160FFF7EAFD81
:101F40000020BDE8F081000040F2100043F60801D7
:101F5000C2F20000C4F202010068096845F298323A
:101F6000C1F38221C0F60002515CC84070470000F6
:101F700040F2100043F60801C2F20000C4F2020170
:101F80000068096845F29832C1F34231C0F6000298
:101F9000515CC84070470000002804BF0120704712
:101FA0002DE9F04182B00446007843F60006C007F0
:101FB000C4F2020633D0B06800F00C00042808D147
:101FC000306880032BD5606848BB012002B0BDE8B3
:101FD000F081B06800F00C00082802D1706840025F
:101FE000EED46068B0706568FFF752FD002D0546BD
:101FF00012D000BF3068800311D4FFF749FD401BA9
:102000006428F7D9CBE000BFFFF742FD401B6428EE
:102010004FF0030000F2DC8030688003F4D42078B5
:10202000800718D5B06810F00C0F07D0B06800F02A
:102030000C00082867D17068400264D430688007BB
:1020400002D5E068012819D13068216920F0F80034
:1020500040EAC10030602078000713D420784007A0
:1020600027D4A569002D00F03681B06800F00C007F
:10207000082840F09880012D40F0CE80012002B069
:10208000BDE8F0816069002840F20000C4F24720FA
:1020900075D00121C0F8801EFFF7FAFC054600BF8D
:1020A000706F8007DAD4FFF7F3FC401B0228F7D9E2
:1020B00075E0306C5FEAC0080AD400200190306CF3
:1020C00040F080503064306C00F0805001900198F6
:1020D00047F20007C4F20007386840F480703860A7
:1020E0003868C00523D4386840F480703860FFF742
:1020F000CFFC05463868C00519D4FFF7C9FC401B62
:102100000228F7D94BE0E068002870D00020C4F224
:10211000472001210160FFF7BBFC054630688007BE
:1021200092D4FFF7B5FC401B0228F7D937E0A0682E
:1021300086F87000A568FFF7ABFC002D054641F25C
:10214000883710D0306F800710D4FFF7A1FC401BF8
:10215000B842F7D923E000BFFFF79AFC401BB84212
:102160004FF0030034D8306F8007F5D4B8F1000F7A
:102170003FF577AF306C20F08050306471E700217C
:10218000C0F8801EFFF784FC054600BF706F800713
:102190007FF564AFFFF77CFC401B0228F6D90320D3
:1021A00002B0BDE8F0810027C4F24727002038665E
:1021B000FFF76EFC022D05460ED100BF306880018E
:1021C0005ED5FFF765FC401B64284FF00300F5D98E
:1021D00002B0BDE8F08100BF306880017BD5FFF719
:1021E00057FC401B64284FF00300F5D9F0E70020AE
:1021F000C4F2472000210160FFF74AFC054600BFFA
:10220000306880077FF527AFFFF742FC401B0228AC
:102210004FF00300F4D9DBE77168E06901F4800254
:10222000824225D1206A01F03F02824220D147F646
:10223000C070626A0840B0EB821F19D1A06A4FF6E5
:10224000FF73C003984301F44032A0F5803082420E
:102250004FF001000DD1E26A01F07063A3EB02615F
:10226000B1FA81F117064909BB4208BF032001E01A
:1022700001200021002918BF002002B0BDE8F08134
:10228000706848F20001CFF2BC0104F11C0500EABD
:10229000010C2ECDE46A41EA0C01ED034FF6FF700C
:1022A000114325EA000041EA8311A0F5803041EA9C
:1022B00004610843706001203866FFF7E9FB0446BB
:1022C0003068800107D4FFF7E3FB001B64284FF060
:1022D0000300F5D97CE7002002B0BDE8F0810000E2
:1022E00010B5006840684FEA1043C0F3042E00F0B8
:1022F0003F0CC0F34234CB7081F801E081F802C09A
:102300000C700AB1002010BDDCB2240904EB840477
:1023100003F00F0303EB4403020ACB704FEA1E13D2
:1023200043EA830302F00F0202EB43024A704FEAD2
:102330001C1242EA820200F00F0000EB420088709B
:10234000002010BD10B500680068C0F30543C0F35D
:10235000062E00F07F0CC0F380540B7081F801E072
:1023600081F802C0CC700AB1002010BD020C1B091C
:1023700043EA830302F00F0202EB4302040A0A70ED
:102380004FEA1E1202EB820204F00F0303EB42023B
:102390004A704FEA1C1202EB820200F00F0000EBC1
:1023A00042008870002010BDF0B581B088B30446AB
:1023B000407F20B900202077204600F079F80220E5
:1023C00060772068C168C90625D4CA2141625321BB
:1023D0004162C168490620D4C16841F08001C160F2
:1023E000FFF756FB2168C968490646D40546002612
:1023F000042700BFFFF74CFB401BB0F57A7F84BF7A
:10240000677701262068C068400607D4012EF1D105
:1024100004E0012645E000263FE0002686BB94E864
:102420000F004FF6BF768768CFF68F76374087600C
:10243000276939436769866839433143816003619D
:10244000016941EA02410161C16821F08001C16076
:1024500043F65771C160FFF71BFB05462068C06853
:10246000800621D4FFF714FB401BB0F57A7FF5D925
:102470000420012660776EB903E00026002ECED03E
:1024800046B92068A169026C22F480220264026CC1
:10249000114301642068FF214162002E04BF012026
:1024A0006077F0B201B0F0BD0026002EF2D1E8E76F
:1024B000006842F60001C4F20001884218BF70476C
:1024C00040F63C60C4F247200121016070470000E3
:1024D0002DE9F0470446007F0227012800F0AD8077
:1024E0000120207767773AB14878CA7891F802A03E
:1024F000000240EA024847E048784FF0CD0CC2069F
:1025000042BF00F0EF000A304870CB784A78A3F160
:102510000A06F5B205FB0CF5DFB2E80A4FF0010E32
:1025200000EB80000EEBD525092FA2F10A0791F8E8
:1025300002A0A6EB400088BF40EA0513FDB205FBF0
:102540000CF5EE0AD8B2D3B206EB8606A7EB460628
:102550000EEBD525092B88BF46EA0512D2B212022E
:1025600042EA0048AAF10A02D3B203FB0CF3DF0AE5
:102570005FFA8AF007EB8707A2EB47020EEBD32343
:10258000092888BF42EA031A206891F80090CA21FE
:10259000416253214162C16849061CD4C16841F0BF
:1025A0008001C160FFF774FA2168C968490637D411
:1025B00005460027042600BFFFF76AFA401BB0F566
:1025C0007A7F84BF667701272068C068400603D4FD
:1025D000012FF1D100E0002737BB5FFA8AF040EA13
:1025E00008004FEA493120F0C000226808435060DB
:1025F000D06820F08000D06043F65770D060FFF7BD
:1026000047FA05462068C06880060CD4FFF740FAF8
:10261000401BB0F57A7FF5D904200127607703E0ED
:1026200000270FB9D9E70027002F04BF01206077EA
:102630002068FF21416200202077F8B2BDE8F087D2
:102640002DE9F04F81B00446007F0227012800F0F9
:10265000C28001202077677720688B46806872B13E
:1026600040065CBF00208BF803009BF801109BF82C
:1026700000009BF80290090241EA004846E040064B
:102680005CBF00208BF803009BF800104FF0CD0CCE
:10269000A1F10A07FEB206FB0CF6F50A9BF8012031
:1026A00005EB8505CBB2A7EB450701259BF802900A
:1026B00005EBD626092B88BF47EA0611A2F10A07C7
:1026C000FEB206FB0CF6F00A00EB8000D3B2A7EBDB
:1026D000400005EBD627092B88BF40EA0712D0B28D
:1026E000C9B2000240EA0148A9F10A01CAB202FBDC
:1026F0000CF2D30A5FFA89F003EB8303A1EB4301E9
:1027000005EBD222092888BF41EA02192068CA21B4
:102710009BF803A0416253214162C16849061CD461
:10272000C16841F08001C160FFF7B2F92168C96852
:10273000490643D406460027042500BFFFF7A8F941
:10274000801BB0F57A7F84BF657701272068C06859
:10275000400603D4012FF1D100E0002797BB5FFAB8
:1027600089F040EA080047F67F7140EA8A50C0F2DB
:102770007F01226808401060906820F480209060FB
:10278000DBE901019368084318439060D06820F0AA
:102790008000D06043F65770D060FFF779F90546A6
:1027A0002068C06880060CD4FFF772F9401BB0F5B2
:1027B0007A7FF5D904200127607703E000270FB95D
:1027C000CDE70027002F04BF012060772068FF219C
:1027D000416200202077F8B201B0BDE8F08F000020
:1027E000411E0020B0EB116F1CBF012070474EF25C
:1027F0001002CEF2000251604EF62351CEF20001DB
:10280000F0230B7007219060116070477047000043
:102810007047000090F83C20012A4FF0020255D08A
:1028200010B5012380F83C3080F83D200268D2F8D2
:1028300004E0D2F808C00C682EF07003234341F284
:10284000FF74C4F20004A24253600DDC40F2FF7337
:10285000C4F200039A4215DCB2F1804F29D040F255
:102860000043C4F2000322E040F2FF33C4F201034C
:102870009A4212DC41F60003C4F200039A4218D0D7
:10288000002312E040F60003C4F200039A4210D085
:1028900040F60043C4F2000309E044F20003C4F22E
:1028A00001039A4205D040F20043C4F201039A4268
:1028B00004D149682CF08003194391600121002262
:1028C00080F83D1080F83C20BDE81040104670476D
:1028D000002804BF0120704710B5044690F83D0061
:1028E00028B9002084F83C00204600F01FF80220A0
:1028F00084F83D002068211D01F00AFA012084F8C7
:10290000460084F83E0084F83F0084F8400084F8D4
:10291000410084F8420084F8430084F8440084F8BD
:10292000450084F83D00002010BD000080B584B053
:10293000006840F60001C4F20001884222D040F253
:102940000041C4F20001884236D0B0F1804F42D13C
:102950000020039043F64000C4F202000168002208
:1029600041F0010101600068012100F001000390C5
:1029700003981C20FFF722F91C2004B0BDE880401A
:10298000FFF70CB90020019043F64000C4F20200AA
:102990000168002241F0040101600068012100F09B
:1029A0000400019001981E20FFF708F91E2004B0D2
:1029B000BDE88040FFF7F2B80020029043F64000E7
:1029C000C4F20200016841F002010160006800F0F9
:1029D00002000290029804B080BD000090F83D1003
:1029E00001291CBF01207047022180F83D100068BA
:1029F00041F2FF72C168C4F20002904241F001014D
:102A0000C1600DDC40F2FF71C4F20001884215DCA8
:102A1000B0F1804F29D040F20041C4F2000122E021
:102A200040F2FF31C4F20101884212DC41F600019C
:102A3000C4F20001884218D0002112E040F60001E3
:102A4000C4F20001884210D040F60041C4F20001F7
:102A500009E044F20001C4F20101884205D040F2CD
:102A60000041C4F20101884206D1816801F00701EA
:102A7000062904BF00207047016841F00101016090
:102A80000020704790F83C20012A4FF0020200F02D
:102A9000C68080B5012380F83C3080F83D20D0F816
:102AA00000C04FF67772DCF8083023EA0202CCF857
:102AB00008200B684F2B28DC1F2B44DD202B45D032
:102AC000302B43D0402B40F0AC80D1F804E0C968F3
:102AD000DCF82030DCF8202022F00102CCF82020A5
:102AE000DCF8182022F0F00242EA011123F00A0279
:102AF00042EA0E02CCF81810CCF82020DCF80810BE
:102B000041F0470121F030017EE06F2B26DDB3F567
:102B1000005F47D0B3F5805F78D0702B40F08180A4
:102B2000D1E901E3C968DCF8082043EA0E0322F486
:102B30007F4243EA01211143CCF80810DCF8081069
:102B400041F0770160E00BB1102B6AD1DCF808107E
:102B500021F07001194341F0070155E0502B34D0AA
:102B6000602B5ED1D1F804E0C968DCF82030DCF8D5
:102B7000202022F01002CCF82020DCF8182022F4CB
:102B8000704242EA013123F0A00242EA0E12CCF870
:102B90001810CCF82020DCF8081041F0670121F073
:102BA000100131E0D1E901E3C968DCF8082043EA0B
:102BB0000E0322F47F4243EA01211143CCF80810AE
:102BC000DCF8081041F480411EE0D1F804E0C96847
:102BD000DCF82030DCF8202022F00102CCF82020A4
:102BE000DCF8182022F0F00242EA011123F00A0278
:102BF00042EA0E02CCF81810CCF82020DCF80810BD
:102C000041F0570121F02001CCF8081000220121E9
:102C100080F83D10002180F83C10BDE8804010464F
:102C200070470122F3E700007047000010B504462A
:102C300000680169890744BFC1685FEA81713FD4B8
:102C400020680169490744BFC1685FEA417143D404
:102C500020680169090744BFC1685FEA017148D46F
:102C600020680169C90644BFC1685FEAC1614CD4EC
:102C700020680169C9071CBFC1685FEAC17151D1F1
:102C800020680169090644BFC1685FEA016150D448
:102C900020680169490644BFC1685FEA41614FD4B9
:102CA00021680869800646BFC8685FEA806010BD79
:102CB0006FF0200220460A61BDE81040FFF7A8BD72
:102CC0006FF00201016101212177806980073ED008
:102CD0002046FFF7A9FF40E06FF0040101610221E7
:102CE0002177806910F4407F3AD02046FFF79CFF9F
:102CF0003CE06FF00801016104212177C069800781
:102D000037D02046FFF790FF39E06FF010010161E6
:102D100008212177C06910F4407F33D02046FFF7A7
:102D200083FF35E06FF001010161204600F038F8C3
:102D3000A6E76FF0800101612046FFF767FDA7E776
:102D40006FF040010161204600F0B4F8A8E720468A
:102D500000F022F8204600F021F8002020776FE7ED
:102D6000204600F019F8204600F018F800202077DF
:102D70006EE7204600F010F8204600F00FF8002023
:102D800020776DE7204600F007F8204600F006F8AF
:102D9000002020776CE700007047000070470000BB
:102DA0002DE9F0418AB040F21C21C2F200018842B4
:102DB0002AD040F2AC21C2F20001884221D140F277
:102DC0002008C2F2000898F80300D0B940F20800C9
:102DD000C2F2000009C819785A789B7806784578BD
:102DE0008778C4784FF0010C08F1310088F803C0EF
:102DF000CDE900650297039401F03EFB002088F8BE
:102E000003000AB0BDE8F08140F22005C2F20005DF
:102E100028780028F5D040F20804C2F20004211DF1
:102E2000204600F071FE6889298900222A7001F08D
:102E300001F80246D4E900036F781C7893F801C0CA
:102E40009B7890F801E0867890F8038005F13100D6
:102E5000089002A8C5E90421183580E8484006A07A
:102E60000B46CDE9004CCDE90587079501F0C6F882
:102E70000AB0BDE8F08100BF53454E534F525F4446
:102E80004154412C252E32662C253032642C2530BD
:102E900032642C253032642C253032642C253032BB
:102EA000642C253032642C25642C25732C25732C3E
:102EB0000A0000007047000070B582B0044690F828
:102EC0004200202809D113460A4600294FF001008C
:102ED00018BF002B04D102B070BD022002B070BD3B
:102EE0002063002622206663A262A385666484F8BC
:102EF0004200E06B43F6657C43F6E5752168C0F659
:102F0000000CC0F60005C0E90FC543F6C165C0F668
:102F100000050431C0E91356FEF7E6FA0196206871
:102F200001680191406801900198206950B100BF8B
:102F3000206850E8030F216840F4807041E80302E4
:102F4000002AF5D1206850E8050F216840F0010003
:102F500041E80502002AF5D1206850E8050F2168F4
:102F600040F0400041E80502002AF5D1206B01281D
:102F700015D1002000902068016800914068009001
:102F8000009800BF206850E8030F216840F010004F
:102F900041E80302002AF5D1002002B070BD0120F3
:102FA00002B070BD006844F20042C4F200029042D8
:102FB00018BF7047B0B540F22005C2F2000505F118
:102FC0004A0440F2B0000A46C2F200002146FDF772
:102FD0002BF90120A87040F2F420C2F20000214633
:102FE0003222FFF769FF40F29C10C2F20000006835
:102FF000016821F008010160BDE8B04070470000A1
:1030000070470000B0B582B0044600680168C3682C
:10301000426901F02F05202D03F0200506D12DB1C6
:10302000204602B0BDE8B04001F02CB85FEA017C58
:103030001EBF02F0010E03F4907212EB0E0240D19B
:10304000226BCD0618D5012A16D113F0100213D029
:103050000021019101680191416801910199406944
:10306000400636D4A08DE18DE28D002A18BF88423B
:1030700040F00E8102B0B0BD0A0672D513F0800296
:103080006FD094F841102129F4D1A168B1F5805F87
:1030900003D12169002900F03081216A4A1C226293
:1030A00009784160E18C01390A04E184E2D1C16808
:1030B00021F08001C160C16841F04001C16002B0EF
:1030C000B0BDC80718BF13F480705ED1480762D442
:1030D00068E0E06B016849688AB2002ACAD0A38D13
:1030E0009A42C7D2E185C069B0F5807F31D000BF78
:1030F000206850E8030F216820F4807041E8030243
:10310000002AF5D1206850E8050F216820F0010061
:1031100041E80502002AF5D1206850E8050F216832
:1031200020F0400041E80502002AF5D1202084F873
:1031300042000020206300BF206850E8030F216890
:1031400020F0100041E80302002AF5D1E06BFEF701
:1031500013F802206063A08DE18D401A81B22046F1
:10316000C0E049067FF586AF13F040013FF482AF1F
:10317000C16821F04001C1602021204684F841103F
:1031800002B0BDE8B04000F039BA606C40F0010018
:103190006064480706D5BEF1000F03D0606C40F0B4
:1031A00002006064880706D5BEF1000F03D0606C92
:1031B00040F004006064BCF1000F06D55EEA050033
:1031C00003D0606C40F008006064606C00283FF43D
:1031D00051AF880603D515B1204600F053FF206893
:1031E0004069616C00F0400001F00801401848D0CF
:1031F000206850E8030F216820F4907041E8030232
:10320000002AF5D1206850E8050F216820F0010060
:1032100041E80502002AF5D1206B01280AD100BF40
:10322000206850E8030F216820F0100041E80302F5
:10323000002AF5D1202084F8420000202063206875
:103240004069400653D500BF206850E8050F21684B
:1032500020F0400041E80502002AF5D1E06B00288B
:1032600045D043F6B561C0F600010165FDF7C4FF26
:1032700000283FF4FFAEE06B016D02B0BDE8B04046
:1032800008472046FFF7BCFE0020606402B0B0BDD6
:10329000401A00BF216851E8031F226821F4907191
:1032A00042E80313002BF5D1216851E8051F22687D
:1032B00021F0010142E80513002BF5D1202184F80B
:1032C00042100021216300BF216851E8031F2268DA
:1032D00021F0100142E80313002BF5D1022281B244
:1032E0002046626302B0BDE8B040FFF75BBE2046F7
:1032F00002B0BDE8B040FFF783BE216A31F8022B6F
:103300006FF35F2242602162CCE60000002804BF18
:103310000120704710B5044690F8410028B90020FC
:1033200084F84000204600F021F8242084F8410071
:103330002068C16821F40051C160204600F002FFFE
:103340002068016921F490410161416921F02A015D
:103350004161C16841F40051C160002020216064D6
:1033600084F8411084F84210606310BD70B586B0D7
:103370000446216844F60002C4F200020020914293
:10338000CDE90400CDE90200019055D044F200409F
:10339000C4F20000814279D1002643F63000009645
:1033A000C4F20200016941F400310161016901F4D4
:1033B0000031009100990096016841F0010101601F
:1033C000006801A900F00100009000980C20019015
:1033D0000220CDE90206032004900720059000207A
:1033E000C4F20200FEF76EFA40F29C1546F2880025
:1033F000C2F20005C4F202004FF000614FF4806297
:1034000085E843002846C5E90362C5E90566C5E9C4
:1034100007666E62FDF7C8FF002818BFFDF732FB94
:10342000262002210022E563AC63FEF7C7FB2620BD
:10343000FEF7B4FB06B070BD43F630010090C4F255
:1034400002010A6942F480220A610A6902F48022B8
:103450000092009A00900A6842F008020A60096827
:1034600001F00801009100994FF44071019102218F
:10347000CDE9021003200490072005900020C4F23B
:10348000020000F5406001A9FEF71CFA06B070BD0D
:1034900070470000704700002DE9F04381B00446FA
:1034A00090F8410020281DD10D4600294FF0010061
:1034B00000F0A1801646002A00F09D800020606484
:1034C0002120984684F84100FEF7E2FAA684E684BB
:1034D000A1688146B1F5805F01D1206930B12F46E6
:1034E000002504E0022001B0BDE8F0830027E08C55
:1034F000002842D008F101060AE000BF97B117F892
:10350000010B21684860E08C0138E084E08CA0B3B6
:10351000206800680006F1D4BEB1B8F1000F0ED1EA
:1035200016E000BF35F8020B21686FF35F2048609A
:103530000027E8E701680906E0D4002EFAD0FEF77C
:10354000A7FAA0EB0900404502D82068F2E700BFC7
:10355000206850E8030F216820F4D07041E803028E
:10356000002AF5D1206850E8050F216820F00100FD
:1035700041E80502002AF5D10AE02068006840060B
:1035800035D4B8F1000F1DD018F101050CD012E0B0
:10359000202084F8410084F84200002084F8400094
:1035A000032001B0BDE8F083206800BF0168490630
:1035B0001DD4002DFAD0FEF76BFAA0EB09004045B0
:1035C000F2D900BF206850E8030F216820F4D070C2
:1035D00041E80302002AF5D1206850E8050F216870
:1035E00020F0010041E80502002AF5D1D0E72020B3
:1035F00084F84100002001B0BDE8F083704700006E
:10360000FEE7000010B584B040F2F400C2F2000002
:1036100042F2000C4FF080524FF000630021C4F2E0
:10362000010C4FF4803E0124C0E90A3202220391CA
:10363000017680F82010C26180F83040C0E900CEE9
:10364000C0E90211C0E90444FDF712FC002818BFCC
:10365000FDF718FA1120CDE900040720029040F28E
:10366000F400C2F200006946FDF7D2FA002818BF44
:10367000FDF708FA102000900220019040F2F400BB
:10368000C2F200006946FDF7C3FA002818BFFDF733
:10369000F9F904B010BD000080B582B0002043F6F7
:1036A00030010190C4F202010A6842F480020A600B
:1036B0000A6802F480020192019A009008680022D0
:1036C00040F4001008600868002100F40010009029
:1036D00000981020FEF772FA1020FEF75FFA3820EB
:1036E00000210022FEF76AFA382002B0BDE88040CF
:1036F000FEF754BA2DE9F04F87B0002443F63000AE
:10370000CDE905440194C4F20200016840F60008C6
:1037100041F0040101600168C4F2020801F00401F3
:103720000191019901940168A8F5806641F080013A
:1037300001600168002201F080010191019901946A
:1037400001684FF4814B41F001010160016801F013
:103750000101019101990194016841F002010160A8
:10376000016801F00201019101990194016841F0A1
:1037700008010160016801F00801019101990194BB
:10378000016841F04001016000684FF4814100F0A0
:103790004000019001983046FEF774F908F5805515
:1037A0002846402100224FF0400AFEF76BF94046C0
:1037B0004FF4007100224FF40079FEF763F94FF4E3
:1037C000005002904FF4441002AFCDE9030440468C
:1037D0003946FEF777F8CDF808B04FF0010B3046C8
:1037E0003946CDE903B40594FEF76CF8284639460E
:1037F000CDE902ABCDE90444FEF764F88020CDE9C1
:103800000204284639460494FEF75CF840463946DF
:10381000CDE9029BCDE90444FEF754F828200321AA
:103820000022FEF7CBF92820FEF7B8F907B0BDE873
:10383000F08F000010B584B040F2FC1042F6000199
:103840000024C2F20000C4F200017F22C0E900148B
:1038500000F10801CDE90044FF231CC1C0E9054483
:10386000FEF7A2FD002818BFFDF70CF940F2FC108E
:10387000C2F2000001A90122ADF804408DF8064013
:10388000CDE90244FEF7DCFE002818BFFDF7FAF888
:1038900040F20110C0F20100009040F2FC10C2F2B0
:1038A000000069460122FEF713FE002818BFFDF74D
:1038B000E9F804B010BD000080B586B040F21C20CD
:1038C0000021C2F200004FF0804241F26F7342F2D9
:1038D0000F7C0591CDE90311CDE90011C0E900236A
:1038E000C0E9021C01618161FEF7F2FF002818BFE8
:1038F000FDF7C8F84FF48050029040F21C20C2F24D
:10390000000002A9FFF7BEF8002818BFFDF7BAF8BB
:1039100040F21C20C2F200006946FEF77BFF00283F
:1039200018BFFDF7AFF806B080BD000080B586B0C7
:103930002020009040F2642040F200420021C2F2B8
:103940000000C4F2000240F2AF4342F20F7C059146
:10395000CDE903110191C0E90023C0E9021C016116
:103960008161FEF7B5FF002818BFFDF78BF84FF413
:103970008050029040F26420C2F2000002A9FFF7DA
:1039800081F8002818BFFDF77DF840F26420C2F2EC
:1039900000006946FEF73EFF002818BFFDF772F8E9
:1039A00006B080BD80B586B040F2AC2040F6000283
:1039B0000021C2F20000C4F2000245F6C05342F2F8
:1039C000107C0591CDE90311CDE90011C0E9002378
:1039D000C0E9021C01618161FEF77AFF002818BF6F
:1039E000FDF750F84FF48050029040F2AC20C2F244
:1039F000000002A9FFF746F8002818BFFDF742F8BB
:103A000040F2AC20C2F200006946FEF703FF002836
:103A100018BFFDF737F806B080BD000080B540F252
:103A2000F42044F20041C2F20000C4F2000100237D
:103A30004FF00C0C4FF4165280E80E00C0E903332F
:103A4000C0E905C3C361FFF761FC002808BF80BD62
:103A5000BDE88040FDF716B880B540F23C3044F632
:103A60000001C2F20000C4F2000100234FF00C0C70
:103A70004FF4E13280E80E00C0E90333C0E905C32A
:103A8000C361FFF743FC002808BF80BDBDE880404C
:103A9000FCF7F8BFFEE70000704700007047000029
:103AA00070470000FEF70CB843F60000C4F20200B5
:103AB00001684FF6FF7341F0010101600021816050
:103AC0000268CFF6F6631A40026043F21002C2F2B7
:103AD00000424260026822F480220260C1604EF619
:103AE0000850CEF200004FF0006101607047000006
:103AF00040F21C20C2F20000FFF798B840F2AC2060
:103B0000C2F20000FFF792B8B0B540F2FC150968A8
:103B1000C2F20005044628460022FEF713FC216885
:103B200028460022BDE8B040FEF7DABB2DE9F04799
:103B300084B00D460C9F064662A118461C4690466E
:103B4000FCF7A9FB10B360A12046FCF7A4FBF8B179
:103B50005EA12046FCF79FFBE0B15DA12046FCF78B
:103B60009AFBC8B15BA12046FCF795FBB0B15AA106
:103B70002046FCF790FB98B158A12046FCF78BFB40
:103B800080B1FCF77FFF00240DE000BF01240AE0B4
:103B9000022408E0032406E0042404E0052402E0F3
:103BA000062400E00724DDE90D9A4DA13846FCF714
:103BB00072FBD8B34BA13846FCF76DFBD0B34AA1DA
:103BC0003846FCF768FBC8B348A13846FCF763FBEE
:103BD000C0B347A13846FCF75EFBB8B345A13846F1
:103BE000FCF759FBB0B344A13846FCF754FBA8B32B
:103BF00042A13846FCF74FFBA0B341A13846FCF781
:103C00004AFB98B33FA13846FCF745FB90B33EA171
:103C10003846FCF740FB88B33CA13846FCF73BFB39
:103C200080B3FCF72FFF00202EE000BF4FF4807020
:103C30002AE000BF4FF4007026E000BF4FF4407050
:103C400022E000BF4FF480601EE000BF4FF4A06090
:103C50001AE000BF4FF4C06016E000BF4FF4E06010
:103C600012E000BF4FF400600EE000BF4FF41060A0
:103C70000AE000BF4FF4805006E000BF4FF48850C8
:103C800002E000BF4FF490504FEA0A6242EA094254
:103C9000104446EA0521204340F2FC1441EA084161
:103CA000C2F20004CDE9000101A920460022FEF77E
:103CB000C7FC694620460022FEF70AFC04B0BDE8B6
:103CC000F08700BF4D6F6E00547565005765640046
:103CD00054687500467269005361740053756E0034
:103CE0004A616E00466562004D617200417072006B
:103CF0004D6179004A756E004A756C004175670028
:103D0000536570004F6374004E6F76004465630026
:103D100010B540F6FF3E0368C4F2000E40F2004CBE
:103D20007045C4F2010C0FDCB0F1804F19D040F2A5
:103D30000042C4F20002904213D040F60002C4F2E6
:103D4000000290420DD010E040F60042C4F20002A2
:103D5000904206D0604504D00022C4F20102904295
:103D600003D14A6823F07003134341F6FF72C4F293
:103D7000000290420DDC70451FDCB0F1804F41D055
:103D800040F20042C4F2000290423BD040F60002F2
:103D900021E043F6FF72C4F20102904220DC42F2BD
:103DA0000002C4F2000290422CD00022C4F20102B0
:103DB000904227D0604525D028E040F60042C4F26A
:103DC000000290421ED041F60002C4F2000290426E
:103DD00018D041F60042C4F20002904212D015E021
:103DE00044F20002C4F2010290420BD044F60002F9
:103DF000C4F20102904205D044F20042C4F2010232
:103E0000904203D1CA6823F44073134323F0800225
:103E10004B69D1F800E08C681A430260C46240F438
:103E20008062C0F828E0624504BF0969016301218E
:103E3000416110BD70B504460846FCF7FAFB0B461D
:103E400045F6F3210246C4F2B3014FF03330FCF7DC
:103E500081FB054620460E46FCF7EBFB02460B466F
:103E600028463146FCF704FB4FF60063C4F2AF036B
:103E70000022FCF76FFB4BF6520245F2EB13C8F23F
:103E80001E52CBF6E873FCF74CFA44F20003C4F27E
:103E90008F030022FCF7ECFA0023C4F20403002293
:103EA000FCF758FB0023C4F239030022FCF739FA6F
:103EB00070BD0000806B0021C185C184FFF7A0B8F0
:103EC000806B0168496990F84120212A11D111F0D5
:103ED00080010ED00021C184016851E8031F0268EF
:103EE00021F0C00142E80313002BF5D1202180F816
:103EF00041100168496990F84220222A2BD111F023
:103F0000400128D00021C185016851E8031F0268E3
:103F100021F4907142E80313002BF5D1016851E8B8
:103F2000051F026821F0010142E80513002BF5D1BD
:103F3000016B01290AD100BF016851E8031F026823
:103F400021F0100142E80313002BF5D1202180F865
:103F5000421000210163416C41F010014164FFF700
:103F60004FB800000168806B0968C90530D4002192
:103F7000C18500BF016851E8031F026821F4807108
:103F800042E80313002BF5D1016851E8051F0268D0
:103F900021F0010142E80513002BF5D1016851E839
:103FA000051F026821F0400142E80513002BF5D1FE
:103FB000202180F84210016B012909D1016851E8E4
:103FC000031F026821F0100142E80313002BF5D112
:103FD00000214163016B012918BFFFF759BA818D98
:103FE000FEF7E0BF806B01214163016B012918BF1F
:103FF000FFF750BA818D4908FEF7D4BF83B010B5E2
:10400000C1B0844643A801AC0EC043AB20464FF478
:1040100080716246009300F0E1FC2046FCF734F921
:1040200082B240F2F420C2F2000021464FF47A73CB
:10403000FFF732FA41B0BDE8104003B0704700000E
:1040400083B010B5C1B0844643A801AC0EC043ABE9
:1040500020464FF480716246009300F0BFFC20467A
:10406000FCF712F982B240F23C30C2F20000214665
:104070004FF47A73FFF710FA41B0BDE8104003B077
:104080007047000090F84210222918BF70478268DC
:10409000B2F5805F01D1016991B1816AB2F5805FAB
:1040A00007D00AB9026922B10268526802F07F02A1
:1040B00001E0026852680A70816A0131816207E09A
:1040C0000168826A49686FF35F2122F8021B8262ED
:1040D000C18D01390A04C18500D070470168CA68E2
:1040E00022F02002CA60CA6822F48072CA604A695B
:1040F00022F001024A61202180F842100021416330
:10410000026B012A18BFFFF7C3B981B0016300BF7A
:10411000016851E8031F026821F0100142E803130F
:10412000002BF5D101680A68D20606D5002200925C
:104130000A680092496800910099818D01B0FEF7EC
:1041400031BF000010B504460068D4E902C22369FB
:10415000016921F4405111430161626943EA0C0194
:10416000E3691143C268194349F20C639A4311434E
:10417000C1604169A26921F4407141F200431143D9
:1041800040F48062C4F201039A42416102D1FDF71A
:10419000EFFE01E0FDF7D8FEE26961681923B2F590
:1041A000004F03FB00F01FD14900B0FBF1F048F2D3
:1041B0001F51C5F2EB11A0FB01235A094FF69C7366
:1041C000C0F6FF7303F1805302FB0300322303EBBD
:1041D000C000A0FB01014FF4F87000EA111000EBE1
:1041E0000210C1F342111BE08900B0FBF1F048F26C
:1041F0001F51C5F2EB11A0FB01235A094FF69C7326
:10420000C0F6FF7302FB0300322303EB0010A0FB98
:104210000101F02000EA511000EB0210C1F343113C
:1042200008442168886010BDB0B50C460546FBF710
:10423000F7FF29680268CBB2D25C12F0380F08BFD2
:104240003021217029680268C1F30723D25C090A72
:1042500012F0380F08BF3021617029680268C1F37D
:104260000743D25C090C12F0380F08BF3021A1704F
:1042700029680268090E525C12F0380F08BF30211D
:10428000E17069680268CBB2D25C12F0380F08BFE7
:104290003021217169680268C1F30723D25C090AE1
:1042A00012F0380F08BF3021617169680268C1F3EC
:1042B0000743D25C090C12F0380F08BF3021A171FE
:1042C00069680268090E525C12F0380F08BF30218D
:1042D000E171A9680268CBB2D25C12F0380F08BF56
:1042E00030212172A9680268C1F30723D25C090A50
:1042F00012F0380F08BF30216172A9680268C1F35B
:104300000743D25C090C12F0380F08BF3021A172AC
:10431000A9680068090E405C10F0380F08BF302112
:10432000E172B0BD40F2F420C2F20000FEF76ABEB6
:10433000FEE700002DE9F04F81B0DDF828B01E4601
:1043400015460446FBF7B5FFFBF79EFF2C274FF001
:10435000CD08275205FB08F04FF03009C10A09EBE0
:10436000D0208DF8010001EB8100A5EB400040F06A
:1043700030000DF101058DF802004FF0000A2046D3
:1043800029468DF803A0FBF773FFFBF77DFF27524B
:1043900006FB08F0C10A09EBD0208DF8010001EB03
:1043A0008100A6EB400040F030008DF8020020466E
:1043B00029468DF803A0FBF75BFFFBF765FF27524B
:1043C0000BFB08F0C10A09EBD0208DF8010001EBCE
:1043D0008100ABEB400040F030008DF80200204639
:1043E00029468DF803A0FBF743FFFBF74DFF0B9920
:1043F00027522046FBF73CFFFBF746FF0C9927525C
:104400002046FBF735FFFBF73FFF0D9A275202FBD3
:1044100008F0C10A09EBD0208DF8010001EB810002
:10442000A2EB400040F030008DF802002046294603
:104430008DF803A0FBF71CFFFBF726FF0E9A27520F
:1044400002FB08F0C10A09EBD0208DF8010001EB56
:104450008100A2EB400040F030008DF802002046C1
:1044600029468DF803A0FBF703FFFBF70DFF27524A
:1044700001B0BDE8F08F0000B0B5A0B00D46DDE999
:10448000241494464A1E062A01462FD8DFE802F07B
:10449000040A10161C22280046F64D70C0F26E0069
:1044A00023E000BF47F25450C0F265001DE000BF9A
:1044B00046F25750C0F2640017E000BF46F65400C1
:1044C000C0F2750011E000BF47F24620C0F269005B
:1044D0000BE000BF46F25310C0F2740005E000BFCD
:1044E00047F24A50C0F26E0009300590DDE9260E11
:1044F000621E0B2A53D8DFE802F0070F151B212795
:104500002D33393F474D00BF47F24A52C0F26C028B
:1045100002F5F63242E000BF46F24652C0F26202B5
:104520003CE000BF46F24D12C0F2720236E000BF1E
:1045300047F24102C0F2720230E000BF46F24D1273
:10454000C0F279022AE000BF47F24A52C0F26E027E
:1045500024E000BF47F24A52C0F26C021EE000BFE6
:1045600047F24152C0F2670218E000BF46F25352D0
:10457000C0F2700212E000BF46F25312C0F27402A1
:1045800002F5FE720AE000BF46F64E72C0F27602F5
:1045900004E000BF46F24452C0F26302069205AC4A
:1045A00006AACDE9003407ACCDE9022020462A4610
:1045B0006346CDF810E0FFF7BDFE0020C0F60E0008
:1045C00021461922FCF7F0FA20B0B0BDF0B5A1B039
:1045D00046F64D70C0F26E00209046F24A10C0F2CE
:1045E0006E0020AC1F90002501261FAF0020002187
:1045F00000222346CDE900760295FFF797FACDE930
:10460000005445F2AC3106ACC0F600012046002251
:104610000023CDE902760495FFF78CFE0020C0F65A
:104620000E0021461922FCF7BFFA40F2510045F274
:104630005341C2F20000C3F24D31016046F63261CF
:10464000C6F6615141606521018121B0F0BD0000D5
:10465000C2B0FDF743FA0A2006900120102109900C
:10466000CDE90A100D2002250E90C320CDE90F05DB
:1046700005200024119006A8CDE90744CDE93B446C
:10468000CDE93944CDE90C54FDF786FC0F20CDE986
:104690003D054FF4A05040904FF4805041903DA80C
:1046A00003213F94FDF76EFB042038904FF4007017
:1046B0003B9038A8FDF7BEFAFFF71CF8FEF7ECFFB9
:1046C000FFF7CAF9FEF79EFFFFF730F9FFF7B2F8E0
:1046D000FFF7F2F8FFF766F9FFF7A0F940F2200BB9
:1046E000C2F2000B40F2F4000BF10801C2F200002C
:1046F0000222FCF7AFFC40F21040C4F20000016857
:1047000021F0010101600020C0F60E0006A9FCF7AF
:1047100029FA18B1FFF75AFF03E000BF06A800F01E
:1047200009F9FDF7BBF93D90FDF7BEF93E90FDF7A5
:10473000C1F93F900BF118013DA8FFF775FD40F25C
:10474000F4200BF14A01C2F200003222FEF7B4FB62
:1047500040F29C10C2F200000068016821F00801DC
:10476000016040F21C20C2F20000FEF737F940F26F
:104770006420C2F20000FEF731F940F2AC20C2F230
:104780000000FEF72BF940F2B00745F2A8390FF20E
:10479000641AC2F20007C0F600090FF2681800257B
:1047A0005BE000BF00204946FBF78CFDFBF7ACFD4A
:1047B000059000204946FBF785FDFBF7A5FD049019
:1047C00000204946FBF77EFDFBF79EFD039000208D
:1047D0004946FBF777FD804600204946FBF772FD0E
:1047E000834600204946FBF76DFDFBF78DFD04462F
:1047F00000204946FBF766FDFBF786FD40F20045C9
:10480000C4F20205064628468021FDF733F94FF42D
:104810007A70FCF7B9FE28468021FDF72BF9E0B24B
:10482000CDE900B005980499039AF6B2C0B240F2FF
:10483000200BC9B2D2B24346C2F2000B0FF2C40839
:1048400002960025FFF772F938463221FBF705FD85
:104850008BF802503220FCF797FE9BF802000028EC
:10486000F8D05046FFF7ECFB38464946FBF72AFDE7
:1048700041460446FBF70FFD002893D0204625A1B2
:10488000FBF709FDA0B127A0FFF7DAFB40F20044D7
:10489000C4F2020420464FF48041FDF7EBF84FF4D8
:1048A0007A70FCF771FE20464FF480411FE000BF94
:1048B0005C4644F8315F00204946257665612561F4
:1048C000E560A5606560FBF7FDFC01462046FBF74F
:1048D000F0FC40F20044C4F2020420468021FDF7BF
:1048E000C9F84FF47A70FCF74FFE20468021FDF79F
:1048F000C1F8A9E74E6577206D6573736167650D33
:104900000A000000434F4D4D414E445F4441544521
:1049100000000000434F4D4D414E445F4E414D4518
:1049200000000000426164206D6573736167650D6E
:104930000A0000002DE9F04F9DB004AC2146FCF7C1
:1049400053F845F2A835C0F6000520462946FBF786
:10495000B9FC804600202946FBF7B4FCFBF7D4FCE9
:10496000814600202946FBF7ADFCFBF7CDFC8246D3
:1049700000202946FBF7A6FCFBF7C6FC8346002077
:104980002946FBF79FFC064600202946FBF79AFCC8
:10499000074600202946FBF795FCFBF7B5FC0446CB
:1049A00000202946FBF78EFCFBF7AEFCC5B2E0B257
:1049B000CDE900705FFA89F05FFA8AF15FFA8BF255
:1049C00033460295FFF7B2F840F25100C2F2000000
:1049D0004146FBF76EFC1DB0BDE8F08F7CB50C00C6
:1049E0001D461646014601D0601E00E00020CDE9BC
:1049F0000010064B6A462946304600F0DFF8002CCE
:104A000002D0009A002111707CBD0000EB5200081A
:104A1000004870470400002002E008C8121F08C1C7
:104A2000002AFAD170477047002001E001C1121F2F
:104A3000002AFBD1704700002DE9FF5F82B0002102
:104A4000DDE90430020DDDF840B0034318D044F630
:104A50001050A2F2FF3242431514119801281FD0C2
:104A6000A5EB0B00401C5FEA000A4FF000064E4F1A
:104A7000DFF83891B046504615D5CAF1000413E06E
:104A8000119801244AA3012801D16FEA0B01029871
:104A9000119AC0E90031C0E9024206B0BDE8F09FBA
:104AA000CBF10000DFE704460021404A491842EB01
:104AB0000450CDE9001012E0E00707D032463B4633
:104AC00040464946FBF7D4FC8046894632463B4681
:104AD00010461946FBF7CCFC06460F466410002C26
:104AE000EAD1DDE90401DDE90023BAF1000F06DABD
:104AF000FBF7BEFC42464B46FBF7BAFC05E0FBF772
:104B000029FD42464B46FBF725FD04460E46002292
:104B1000284BFBF78FFE03D84FF0FF30014607E02C
:104B20000022254B20463146FBF7FBFBFBF76AFED4
:104B3000102409E0002C0ADB0A220023FBF73EFBCD
:104B4000039B30321A55641E50EA0102F2D1641CF4
:104B5000039AC4F111031444119A012A03D00122CB
:104B600008430DD10AE0084304D000204FF0110B98
:104B7000119072E7A3EB0B056D1E0DE05B4504DDA4
:104B80004FF0000205F1010504E003DA4FF00002E6
:104B9000A5F10105002AECD002981199C0E9023173
:104BA000C0E9004579E70000000014400000F03F34
:104BB000300000000000F0430000E03F2DE9FF4F0F
:104BC00095B09B468946064600250FE2252877D1F9
:104BD00000242746F84A0121059400E0044316F812
:104BE000013F203B01FA03F01042F7D130782A2828
:104BF00011D06FF02F033078A0F13002092A16D8B7
:104C0000059A44F0020402EB820203EB42021044D4
:104C1000761C0590EFE759F8042B0592002A03DA79
:104C2000504244F40054059044F00204761C30785D
:104C30002E2816D116F8010F44F004042A280DD0AE
:104C40006FF02F023078A0F13003092B09D807EB61
:104C5000870302EB4303C718761CF3E759F8047B7C
:104C6000761C30786C280FD006DC4C2817D06828CA
:104C70000DD06A2814D104E0742810D07A280FD1FE
:104C80000DE044F400140AE044F4801401E044F41C
:104C900040147278824202D104F58014761C761C8E
:104CA000307866280BD013DC582877D009DC002830
:104CB00075D04528F6D04628F4D047281AD19DE172
:104CC00018E0632835D0642879D0652812D195E1A1
:104CD000702873D008DC6728F1D069286FD06E285F
:104CE0000DD06F2806D1B5E073282CD0752875D06B
:104CF000782874D05A46179990476D1C75E1C4F313
:104D00000250022809D003280DD0D9F80010042839
:104D10000DD00D6009F1040967E1D9F80010EA1718
:104D2000C1E90052F6E7D9F800100D80F2E70D70E6
:104D3000F0E719F8041B8DF8001000208DF8010031
:104D4000EA46012003E059F804AB4FF0FF30610759
:104D50004FF0000102D40DE008F101018846B9428C
:104D60000FDA8045F8DB1AF808100029F4D108E0C2
:104D700008F1010188468142FADB1AF8081000297F
:104D8000F6D105985B46A0EB080721463846179AEE
:104D900000F094FA284400EB080507E04DE029E113
:104DA0000DE01AF8010B5A4617999047B8F101081F
:104DB000F7D25B4621463846179A13E142E00A22B1
:104DC0000092C4F302524FF0000A022A08D059F8A8
:104DD00004CB032A4FEAEC710AD00DE029E02AE067
:104DE00009F1070121F00702F2E802C1914609E04A
:104DF0000FFA8CFC4FEAEC71042A03D14FFA8CFCB9
:104E00004FEAEC71002907DA0A460021DCF1000CB8
:104E100061EB02012D2202E0220504D52B228DF840
:104E20000420012203E0E20701D02022F7E79046A8
:104E300059E00A2102E010220DE010214FF0000A93
:104E400000910BE010224FF0000A44F00404082700
:104E5000009203E008224FF0000A0092C4F30252CD
:104E6000022A05D059F804CB0021032A08D009E012
:104E700009F1070121F00702F2E802C1914605E0BD
:104E80001FFA8CFC042A01D10CF0FF0C4FF0000833
:104E9000220728D5702806D0009B83F0100353EA20
:104EA0000A0305D00EE040228DF80420012208E01C
:104EB0005CEA010206D030228DF804208DF805004E
:104EC00002229046009B83F0080353EA0A030AD1AA
:104ED0005CEA010201D1620705D530228DF8042079
:104EE0004FF001087F1E582804D034A003900EA86C
:104EF00002900DE036A0F9E753466046009AFBF7B2
:104F00005DF984460398825C0298401E029002700C
:104F10005CEA0100F0D1029806A9081A00F1200A03
:104F2000600702D524F4803400E00127574502DDF4
:104F3000A7EB0A0000E0002000EB0A0100900598B2
:104F40004144401A0590E00306D45B462146179A77
:104F5000059800F0B3F90544002706E001A85A4679
:104F6000C05D179990476D1C7F1C4745F6DBE00339
:104F70000CD55B462146179A059800F09FF9054429
:104F800004E030205A46179990476D1C0099481E3E
:104F900000900029F5DC08E0029802995A46007852
:104FA000491C0291179990476D1CBAF10001AAF1B2
:104FB000010AF1DC65E100000928010030313233DB
:104FC0003435363738396162636465660000000045
:104FD000303132333435363738394142434445462F
:104FE0000000000000F058F90544761C30780028D5
:104FF0007FF4ECAD19B02846BDE8F08F620700D40D
:10500000062709F1070222F0070CFCE80223E1461B
:1050100003F000485FEA080C02D00FF2702C0DE09C
:105020005FEA045C02D50FF2682C07E05FEAC47CFB
:1050300002D00FF2602C01E0AFF2700C4FF0FF389D
:1050400023F00043CDF850C065280CD006DC45287D
:1050500009D046281DD047283DD13DE0662818D00C
:1050600067287ED138E00021112F01DB112000E0FC
:10507000781CCDE9000106A90EA8FFF7DDFCDDE9EB
:105080000F010E9A03910021009207F1010A049189
:105090004DE04FF000400097CDE9011006A90EA8A1
:1050A000FFF7CAFCDDE90F0203920E9B1199002263
:1050B000DDF80CA00093049211B9791C00EB010AF1
:1050C000B7EB0A0004D4C0F1FF3007F1010A0490E5
:1050D000AAEB0700019044E0012F00DA012700212C
:1050E000112F01DD112000E03846CDE9000106A9AD
:1050F0000EA8FFF7A1FCDDE90F010E9A0391002134
:1051000004910092BA4621070CD40399514500DA64
:105110008A46BAF1010F05DD009AAAF10101515C3E
:10512000302908D0B84202DA10F1040F06DA012162
:10513000CDE9011015E0AAF10101E9E7002805DC3D
:10514000049901440491AAEB000102E0411C51457D
:1051500000DD8A460499401A401C01904FF000403F
:105160000290200704D40198504501DBCDF804805B
:1051700000208DF84F0002980DF14F07B0F1004F5D
:1051800025D02B200E9002984FF0020800280CDA50
:10519000404202902D200E9007E00A210298FBF772
:1051A00055FA3031029007F8011DB8F10001A8F15D
:1051B0000108F2DC02980028EFD1791E0E980870E1
:1051C000307800F0200040F0450007F8020D12A8EA
:1051D000C01B00F107081498007800B1012000EB13
:1051E0000A01019801EBE07105984144401A401E04
:1051F0000590E00306D45B462146179A059800F017
:105200005DF805441498007818B15A4617999047EC
:105210006D1CE00324D55B462146179A059800F0E3
:105220004DF805441CE00498002807DBDDE9030184
:10523000884203DD0098405C179901E017993020FF
:105240005A469047049805F10105401C04900198C6
:10525000401E019004D12E205A46179990476D1C8C
:10526000BAF10001AAF1010ADDDC05E017F8010B33
:105270005A46179990476D1CB8F10001A8F1010832
:10528000F4DC5B462146179A0598ABE62D0000003A
:105290002B000000200000002DE9F041044600250D
:1052A0001E461746880404D405E039462020B0473E
:1052B0006D1C641EF9D52846BDE8F0812DE9F0414A
:1052C000044600251E469046C80301D5302700E05D
:1052D0002027880404D505E041463846B0476D1CB8
:1052E000641EF9D52846BDE8F0814A68002A06D038
:1052F0000A68531C0B6010704868401E4860704775
:1053000000404040404040404040414141414140D8
:10531000404040404040404040404040404040408D
:10532000400502020202020202020202020202021C
:105330000220202020202020202020020202020221
:105340000202909090909090101010101010101079
:105350001010101010101010101010100202020285
:1053600002028888888888880808080808080808C9
:1053700008080808080808080808080802020202C5
:105380004000000001530008000000000000000081
:1053900001020304060708090000000001020304DB
:1053A00000061016000610162C00000053544D3352
:1053B000326E616D65000000D853000800000020C7
:1053C00020000000184A0008F853000820000020C0
:1053D00088070000284A00080000000000000000C4
:1053E000E2000020E80000200024F400010000009A
:0853F0001000000000000000A5
:040000050800018569
:00000001FF
